{
  "_format": "hh-sol-artifact-1",
  "contractName": "chai",
  "sourceName": "contracts/chai.sol",
  "abi": [
    {
      "inputs": [
        {
          "internalType": "string",
          "name": "_name",
          "type": "string"
        },
        {
          "internalType": "string",
          "name": "_email",
          "type": "string"
        },
        {
          "internalType": "string",
          "name": "_gender",
          "type": "string"
        },
        {
          "internalType": "string",
          "name": "_nationality",
          "type": "string"
        }
      ],
      "name": "addUser",
      "outputs": [],
      "stateMutability": "nonpayable",
      "type": "function"
    },
    {
      "inputs": [],
      "name": "deleteUser",
      "outputs": [],
      "stateMutability": "nonpayable",
      "type": "function"
    },
    {
      "inputs": [],
      "name": "getTotalUsers",
      "outputs": [
        {
          "internalType": "uint256",
          "name": "",
          "type": "uint256"
        }
      ],
      "stateMutability": "view",
      "type": "function"
    },
    {
      "inputs": [
        {
          "internalType": "address",
          "name": "_userAddress",
          "type": "address"
        }
      ],
      "name": "getUser",
      "outputs": [
        {
          "internalType": "string",
          "name": "",
          "type": "string"
        },
        {
          "internalType": "string",
          "name": "",
          "type": "string"
        },
        {
          "internalType": "string",
          "name": "",
          "type": "string"
        },
        {
          "internalType": "string",
          "name": "",
          "type": "string"
        }
      ],
      "stateMutability": "view",
      "type": "function"
    },
    {
      "inputs": [],
      "name": "totalUsers",
      "outputs": [
        {
          "internalType": "uint256",
          "name": "",
          "type": "uint256"
        }
      ],
      "stateMutability": "view",
      "type": "function"
    },
    {
      "inputs": [
        {
          "internalType": "string",
          "name": "_name",
          "type": "string"
        },
        {
          "internalType": "string",
          "name": "_email",
          "type": "string"
        },
        {
          "internalType": "string",
          "name": "_gender",
          "type": "string"
        },
        {
          "internalType": "string",
          "name": "_nationality",
          "type": "string"
        }
      ],
      "name": "updateUser",
      "outputs": [],
      "stateMutability": "nonpayable",
      "type": "function"
    },
    {
      "inputs": [
        {
          "internalType": "address",
          "name": "",
          "type": "address"
        }
      ],
      "name": "users",
      "outputs": [
        {
          "internalType": "string",
          "name": "name",
          "type": "string"
        },
        {
          "internalType": "string",
          "name": "email",
          "type": "string"
        },
        {
          "internalType": "string",
          "name": "gender",
          "type": "string"
        },
        {
          "internalType": "string",
          "name": "nationality",
          "type": "string"
        }
      ],
      "stateMutability": "view",
      "type": "function"
    }
  ],
  "bytecode": "0x608060405234801561001057600080fd5b50611099806100206000396000f3fe608060405234801561001057600080fd5b506004361061007d5760003560e01c80639be572f61161005b5780639be572f6146100db578063a87430ba146100f9578063b5c24a011461012c578063bff1f9e1146101485761007d565b806301cda3ac14610082578063026ff05e1461009e5780636f77926b146100a8575b600080fd5b61009c60048036038101906100979190610a6f565b610166565b005b6100a661023e565b005b6100c260048036038101906100bd9190610ba4565b6102d9565b6040516100d29493929190610c50565b60405180910390f35b6100e3610598565b6040516100f09190610cca565b60405180910390f35b610113600480360381019061010e9190610ba4565b6105a2565b6040516101239493929190610c50565b60405180910390f35b61014660048036038101906101419190610a6f565b6107f2565b005b6101506108b2565b60405161015d9190610cca565b60405180910390f35b6040518060800160405280858152602001848152602001838152602001828152506000803373ffffffffffffffffffffffffffffffffffffffff1673ffffffffffffffffffffffffffffffffffffffff16815260200190815260200160002060008201518160000190816101da9190610ef1565b5060208201518160010190816101f09190610ef1565b5060408201518160020190816102069190610ef1565b50606082015181600301908161021c9190610ef1565b509050506001600081548092919061023390610ff2565b919050555050505050565b6000803373ffffffffffffffffffffffffffffffffffffffff1673ffffffffffffffffffffffffffffffffffffffff1681526020019081526020016000206000808201600061028d91906108b8565b60018201600061029d91906108b8565b6002820160006102ad91906108b8565b6003820160006102bd91906108b8565b5050600160008154809291906102d29061103a565b9190505550565b60608060608060008060008773ffffffffffffffffffffffffffffffffffffffff1673ffffffffffffffffffffffffffffffffffffffff16815260200190815260200160002060405180608001604052908160008201805461033a90610d14565b80601f016020809104026020016040519081016040528092919081815260200182805461036690610d14565b80156103b35780601f10610388576101008083540402835291602001916103b3565b820191906000526020600020905b81548152906001019060200180831161039657829003601f168201915b505050505081526020016001820180546103cc90610d14565b80601f01602080910402602001604051908101604052809291908181526020018280546103f890610d14565b80156104455780601f1061041a57610100808354040283529160200191610445565b820191906000526020600020905b81548152906001019060200180831161042857829003601f168201915b5050505050815260200160028201805461045e90610d14565b80601f016020809104026020016040519081016040528092919081815260200182805461048a90610d14565b80156104d75780601f106104ac576101008083540402835291602001916104d7565b820191906000526020600020905b8154815290600101906020018083116104ba57829003601f168201915b505050505081526020016003820180546104f090610d14565b80601f016020809104026020016040519081016040528092919081815260200182805461051c90610d14565b80156105695780601f1061053e57610100808354040283529160200191610569565b820191906000526020600020905b81548152906001019060200180831161054c57829003601f168201915b505050505081525050905080600001518160200151826040015183606001519450945094509450509193509193565b6000600154905090565b60006020528060005260406000206000915090508060000180546105c590610d14565b80601f01602080910402602001604051908101604052809291908181526020018280546105f190610d14565b801561063e5780601f106106135761010080835404028352916020019161063e565b820191906000526020600020905b81548152906001019060200180831161062157829003601f168201915b50505050509080600101805461065390610d14565b80601f016020809104026020016040519081016040528092919081815260200182805461067f90610d14565b80156106cc5780601f106106a1576101008083540402835291602001916106cc565b820191906000526020600020905b8154815290600101906020018083116106af57829003601f168201915b5050505050908060020180546106e190610d14565b80601f016020809104026020016040519081016040528092919081815260200182805461070d90610d14565b801561075a5780601f1061072f5761010080835404028352916020019161075a565b820191906000526020600020905b81548152906001019060200180831161073d57829003601f168201915b50505050509080600301805461076f90610d14565b80601f016020809104026020016040519081016040528092919081815260200182805461079b90610d14565b80156107e85780601f106107bd576101008083540402835291602001916107e8565b820191906000526020600020905b8154815290600101906020018083116107cb57829003601f168201915b5050505050905084565b6040518060800160405280858152602001848152602001838152602001828152506000803373ffffffffffffffffffffffffffffffffffffffff1673ffffffffffffffffffffffffffffffffffffffff16815260200190815260200160002060008201518160000190816108669190610ef1565b50602082015181600101908161087c9190610ef1565b5060408201518160020190816108929190610ef1565b5060608201518160030190816108a89190610ef1565b5090505050505050565b60015481565b5080546108c490610d14565b6000825580601f106108d657506108f5565b601f0160209004906000526020600020908101906108f491906108f8565b5b50565b5b808211156109115760008160009055506001016108f9565b5090565b6000604051905090565b600080fd5b600080fd5b600080fd5b600080fd5b6000601f19601f8301169050919050565b7f4e487b7100000000000000000000000000000000000000000000000000000000600052604160045260246000fd5b61097c82610933565b810181811067ffffffffffffffff8211171561099b5761099a610944565b5b80604052505050565b60006109ae610915565b90506109ba8282610973565b919050565b600067ffffffffffffffff8211156109da576109d9610944565b5b6109e382610933565b9050602081019050919050565b82818337600083830152505050565b6000610a12610a0d846109bf565b6109a4565b905082815260208101848484011115610a2e57610a2d61092e565b5b610a398482856109f0565b509392505050565b600082601f830112610a5657610a55610929565b5b8135610a668482602086016109ff565b91505092915050565b60008060008060808587031215610a8957610a8861091f565b5b600085013567ffffffffffffffff811115610aa757610aa6610924565b5b610ab387828801610a41565b945050602085013567ffffffffffffffff811115610ad457610ad3610924565b5b610ae087828801610a41565b935050604085013567ffffffffffffffff811115610b0157610b00610924565b5b610b0d87828801610a41565b925050606085013567ffffffffffffffff811115610b2e57610b2d610924565b5b610b3a87828801610a41565b91505092959194509250565b600073ffffffffffffffffffffffffffffffffffffffff82169050919050565b6000610b7182610b46565b9050919050565b610b8181610b66565b8114610b8c57600080fd5b50565b600081359050610b9e81610b78565b92915050565b600060208284031215610bba57610bb961091f565b5b6000610bc884828501610b8f565b91505092915050565b600081519050919050565b600082825260208201905092915050565b60005b83811015610c0b578082015181840152602081019050610bf0565b60008484015250505050565b6000610c2282610bd1565b610c2c8185610bdc565b9350610c3c818560208601610bed565b610c4581610933565b840191505092915050565b60006080820190508181036000830152610c6a8187610c17565b90508181036020830152610c7e8186610c17565b90508181036040830152610c928185610c17565b90508181036060830152610ca68184610c17565b905095945050505050565b6000819050919050565b610cc481610cb1565b82525050565b6000602082019050610cdf6000830184610cbb565b92915050565b7f4e487b7100000000000000000000000000000000000000000000000000000000600052602260045260246000fd5b60006002820490506001821680610d2c57607f821691505b602082108103610d3f57610d3e610ce5565b5b50919050565b60008190508160005260206000209050919050565b60006020601f8301049050919050565b600082821b905092915050565b600060088302610da77fffffffffffffffffffffffffffffffffffffffffffffffffffffffffffffffff82610d6a565b610db18683610d6a565b95508019841693508086168417925050509392505050565b6000819050919050565b6000610dee610de9610de484610cb1565b610dc9565b610cb1565b9050919050565b6000819050919050565b610e0883610dd3565b610e1c610e1482610df5565b848454610d77565b825550505050565b600090565b610e31610e24565b610e3c818484610dff565b505050565b5b81811015610e6057610e55600082610e29565b600181019050610e42565b5050565b601f821115610ea557610e7681610d45565b610e7f84610d5a565b81016020851015610e8e578190505b610ea2610e9a85610d5a565b830182610e41565b50505b505050565b600082821c905092915050565b6000610ec860001984600802610eaa565b1980831691505092915050565b6000610ee18383610eb7565b9150826002028217905092915050565b610efa82610bd1565b67ffffffffffffffff811115610f1357610f12610944565b5b610f1d8254610d14565b610f28828285610e64565b600060209050601f831160018114610f5b5760008415610f49578287015190505b610f538582610ed5565b865550610fbb565b601f198416610f6986610d45565b60005b82811015610f9157848901518255600182019150602085019450602081019050610f6c565b86831015610fae5784890151610faa601f891682610eb7565b8355505b6001600288020188555050505b505050505050565b7f4e487b7100000000000000000000000000000000000000000000000000000000600052601160045260246000fd5b6000610ffd82610cb1565b91507fffffffffffffffffffffffffffffffffffffffffffffffffffffffffffffffff820361102f5761102e610fc3565b5b600182019050919050565b600061104582610cb1565b91506000820361105857611057610fc3565b5b60018203905091905056fea26469706673582212202d10cb4bbb57692a418eb320b148c5d522ed5552b73e66a7147df298a8b7f06c64736f6c63430008180033",
  "linkReferences": {},
  "deployedLinkReferences": {}
}